{
  "address": "0x9c1ADCB210AEa385f81C86bEf3Be208c081eEd62",
  "abi": [
    {
      "inputs": [
        {
          "internalType": "address",
          "name": "_priceFeed",
          "type": "address"
        }
      ],
      "stateMutability": "nonpayable",
      "type": "constructor"
    },
    {
      "inputs": [],
      "name": "FundMe_NotOwner",
      "type": "error"
    },
    {
      "stateMutability": "payable",
      "type": "fallback"
    },
    {
      "inputs": [
        {
          "internalType": "address",
          "name": "",
          "type": "address"
        }
      ],
      "name": "addressToAmountFunded",
      "outputs": [
        {
          "internalType": "uint256",
          "name": "",
          "type": "uint256"
        }
      ],
      "stateMutability": "view",
      "type": "function"
    },
    {
      "inputs": [],
      "name": "fund",
      "outputs": [],
      "stateMutability": "payable",
      "type": "function"
    },
    {
      "inputs": [
        {
          "internalType": "uint256",
          "name": "",
          "type": "uint256"
        }
      ],
      "name": "funders",
      "outputs": [
        {
          "internalType": "address",
          "name": "",
          "type": "address"
        }
      ],
      "stateMutability": "view",
      "type": "function"
    },
    {
      "inputs": [],
      "name": "getList",
      "outputs": [
        {
          "internalType": "uint256",
          "name": "",
          "type": "uint256"
        }
      ],
      "stateMutability": "view",
      "type": "function"
    },
    {
      "inputs": [],
      "name": "owner",
      "outputs": [
        {
          "internalType": "address",
          "name": "",
          "type": "address"
        }
      ],
      "stateMutability": "view",
      "type": "function"
    },
    {
      "inputs": [],
      "name": "priceFeed",
      "outputs": [
        {
          "internalType": "contract AggregatorV3Interface",
          "name": "",
          "type": "address"
        }
      ],
      "stateMutability": "view",
      "type": "function"
    },
    {
      "inputs": [],
      "name": "withdraw",
      "outputs": [],
      "stateMutability": "nonpayable",
      "type": "function"
    },
    {
      "stateMutability": "payable",
      "type": "receive"
    }
  ],
  "transactionHash": "0x1eb201dfeb1e656877d4b06e732d817b8043b42a2f941ca3376c4e839aac6907",
  "args": [
    "0x3871a9160E87ee368189550008362cA75ECc22b9"
  ],
  "numDeployments": 2,
  "solcInputHash": "bedd708702172f7cda3c8f849a13c468",
  "bytecode": "0x60c060405264012a05f20060005534801561001957600080fd5b50604051610f21380380610f21833981810160405281019061003b91906100c4565b8073ffffffffffffffffffffffffffffffffffffffff1660a08173ffffffffffffffffffffffffffffffffffffffff1660601b815250503373ffffffffffffffffffffffffffffffffffffffff1660808173ffffffffffffffffffffffffffffffffffffffff1660601b815250505061013f565b6000815190506100be81610128565b92915050565b6000602082840312156100da576100d9610123565b5b60006100e8848285016100af565b91505092915050565b60006100fc82610103565b9050919050565b600073ffffffffffffffffffffffffffffffffffffffff82169050919050565b600080fd5b610131816100f1565b811461013c57600080fd5b50565b60805160601c60a05160601c610da9610178600039600081816101b1015261057401526000818161031b01526105980152610da96000f3fe6080604052600436106100745760003560e01c80638da5cb5b1161004e5780638da5cb5b1461010c578063942b765a14610137578063b60d428814610162578063dc0d3dff1461016c57610083565b80633ccfd60b1461008d5780633e47d6f3146100a4578063741bef1a146100e157610083565b36610083576100816101a9565b005b61008b6101a9565b005b34801561009957600080fd5b506100a2610319565b005b3480156100b057600080fd5b506100cb60048036038101906100c69190610818565b61055a565b6040516100d89190610a0e565b60405180910390f35b3480156100ed57600080fd5b506100f6610572565b60405161010391906109b3565b60405180910390f35b34801561011857600080fd5b50610121610596565b60405161012e9190610998565b60405180910390f35b34801561014357600080fd5b5061014c6105ba565b6040516101599190610a0e565b60405180910390f35b61016a6101a9565b005b34801561017857600080fd5b50610193600480360381019061018e9190610845565b610601565b6040516101a09190610998565b60405180910390f35b6000546101df7f00000000000000000000000000000000000000000000000000000000000000003461064090919063ffffffff16565b1015610220576040517f08c379a0000000000000000000000000000000000000000000000000000000008152600401610217906109ee565b60405180910390fd5b6001339080600181540180825580915050600190039060005260206000200160009091909190916101000a81548173ffffffffffffffffffffffffffffffffffffffff021916908373ffffffffffffffffffffffffffffffffffffffff1602179055506000600260003373ffffffffffffffffffffffffffffffffffffffff1673ffffffffffffffffffffffffffffffffffffffff16815260200190815260200160002054905034816102d39190610a45565b600260003373ffffffffffffffffffffffffffffffffffffffff1673ffffffffffffffffffffffffffffffffffffffff1681526020019081526020016000208190555050565b7f000000000000000000000000000000000000000000000000000000000000000073ffffffffffffffffffffffffffffffffffffffff163373ffffffffffffffffffffffffffffffffffffffff161461039e576040517f10e0797900000000000000000000000000000000000000000000000000000000815260040160405180910390fd5b60005b60018054905081101561044a576000600182815481106103c4576103c3610c5f565b5b9060005260206000200160009054906101000a900473ffffffffffffffffffffffffffffffffffffffff1690506000600260008373ffffffffffffffffffffffffffffffffffffffff1673ffffffffffffffffffffffffffffffffffffffff1681526020019081526020016000208190555050808061044290610bb8565b9150506103a1565b50600067ffffffffffffffff81111561046657610465610c8e565b5b6040519080825280602002602001820160405280156104945781602001602082028036833780820191505090505b50600190805190602001906104aa929190610708565b5060003373ffffffffffffffffffffffffffffffffffffffff16476040516104d190610983565b60006040518083038185875af1925050503d806000811461050e576040519150601f19603f3d011682016040523d82523d6000602084013e610513565b606091505b5050905080610557576040517f08c379a000000000000000000000000000000000000000000000000000000000815260040161054e906109ce565b60405180910390fd5b50565b60026020528060005260406000206000915090505481565b7f000000000000000000000000000000000000000000000000000000000000000081565b7f000000000000000000000000000000000000000000000000000000000000000081565b6000600260003373ffffffffffffffffffffffffffffffffffffffff1673ffffffffffffffffffffffffffffffffffffffff16815260200190815260200160002054905090565b6001818154811061061157600080fd5b906000526020600020016000915054906101000a900473ffffffffffffffffffffffffffffffffffffffff1681565b60008061064c83610678565b905060006305f5e10082866106619190610acc565b61066b9190610a9b565b9050809250505092915050565b6000808273ffffffffffffffffffffffffffffffffffffffff1663feaf968c6040518163ffffffff1660e01b815260040160a06040518083038186803b1580156106c157600080fd5b505afa1580156106d5573d6000803e3d6000fd5b505050506040513d601f19601f820116820180604052508101906106f99190610872565b50505091505080915050919050565b828054828255906000526020600020908101928215610781579160200282015b828111156107805782518260006101000a81548173ffffffffffffffffffffffffffffffffffffffff021916908373ffffffffffffffffffffffffffffffffffffffff16021790555091602001919060010190610728565b5b50905061078e9190610792565b5090565b5b808211156107ab576000816000905550600101610793565b5090565b6000813590506107be81610d17565b92915050565b6000815190506107d381610d2e565b92915050565b6000813590506107e881610d45565b92915050565b6000815190506107fd81610d45565b92915050565b60008151905061081281610d5c565b92915050565b60006020828403121561082e5761082d610cbd565b5b600061083c848285016107af565b91505092915050565b60006020828403121561085b5761085a610cbd565b5b6000610869848285016107d9565b91505092915050565b600080600080600060a0868803121561088e5761088d610cbd565b5b600061089c88828901610803565b95505060206108ad888289016107c4565b94505060406108be888289016107ee565b93505060606108cf888289016107ee565b92505060806108e088828901610803565b9150509295509295909350565b6108f681610b26565b82525050565b61090581610b82565b82525050565b6000610918600b83610a34565b915061092382610cc2565b602082019050919050565b600061093b602083610a34565b915061094682610ceb565b602082019050919050565b600061095e600083610a29565b915061096982610d14565b600082019050919050565b61097d81610b62565b82525050565b600061098e82610951565b9150819050919050565b60006020820190506109ad60008301846108ed565b92915050565b60006020820190506109c860008301846108fc565b92915050565b600060208201905081810360008301526109e78161090b565b9050919050565b60006020820190508181036000830152610a078161092e565b9050919050565b6000602082019050610a236000830184610974565b92915050565b600081905092915050565b600082825260208201905092915050565b6000610a5082610b62565b9150610a5b83610b62565b9250827fffffffffffffffffffffffffffffffffffffffffffffffffffffffffffffffff03821115610a9057610a8f610c01565b5b828201905092915050565b6000610aa682610b62565b9150610ab183610b62565b925082610ac157610ac0610c30565b5b828204905092915050565b6000610ad782610b62565b9150610ae283610b62565b9250817fffffffffffffffffffffffffffffffffffffffffffffffffffffffffffffffff0483118215151615610b1b57610b1a610c01565b5b828202905092915050565b6000610b3182610b42565b9050919050565b6000819050919050565b600073ffffffffffffffffffffffffffffffffffffffff82169050919050565b6000819050919050565b600069ffffffffffffffffffff82169050919050565b6000610b8d82610b94565b9050919050565b6000610b9f82610ba6565b9050919050565b6000610bb182610b42565b9050919050565b6000610bc382610b62565b91507fffffffffffffffffffffffffffffffffffffffffffffffffffffffffffffffff821415610bf657610bf5610c01565b5b600182019050919050565b7f4e487b7100000000000000000000000000000000000000000000000000000000600052601160045260246000fd5b7f4e487b7100000000000000000000000000000000000000000000000000000000600052601260045260246000fd5b7f4e487b7100000000000000000000000000000000000000000000000000000000600052603260045260246000fd5b7f4e487b7100000000000000000000000000000000000000000000000000000000600052604160045260246000fd5b600080fd5b7f43616c6c206661696c6564000000000000000000000000000000000000000000600082015250565b7f596f75206861766520746f2073656e64206174206c6561737420353020555344600082015250565b50565b610d2081610b26565b8114610d2b57600080fd5b50565b610d3781610b38565b8114610d4257600080fd5b50565b610d4e81610b62565b8114610d5957600080fd5b50565b610d6581610b6c565b8114610d7057600080fd5b5056fea26469706673582212200278a4e1835baa39dd2131b50b7a70619666abfdbd5931f5ec31bc29b9c5985d64736f6c63430008070033",
  "devdoc": {
    "kind": "dev",
    "methods": {},
    "version": 1
  },
  "userdoc": {
    "kind": "user",
    "methods": {},
    "version": 1
  },
  "storageLayout": {
    "storage": [
      {
        "astId": 322,
        "contract": "contracts/FundMe.sol:FundMe",
        "label": "minimumUSD",
        "offset": 0,
        "slot": "0",
        "type": "t_uint256"
      },
      {
        "astId": 325,
        "contract": "contracts/FundMe.sol:FundMe",
        "label": "funders",
        "offset": 0,
        "slot": "1",
        "type": "t_array(t_address)dyn_storage"
      },
      {
        "astId": 329,
        "contract": "contracts/FundMe.sol:FundMe",
        "label": "addressToAmountFunded",
        "offset": 0,
        "slot": "2",
        "type": "t_mapping(t_address,t_uint256)"
      }
    ],
    "types": {
      "t_address": {
        "encoding": "inplace",
        "label": "address",
        "numberOfBytes": "20"
      },
      "t_array(t_address)dyn_storage": {
        "base": "t_address",
        "encoding": "dynamic_array",
        "label": "address[]",
        "numberOfBytes": "32"
      },
      "t_mapping(t_address,t_uint256)": {
        "encoding": "mapping",
        "key": "t_address",
        "label": "mapping(address => uint256)",
        "numberOfBytes": "32",
        "value": "t_uint256"
      },
      "t_uint256": {
        "encoding": "inplace",
        "label": "uint256",
        "numberOfBytes": "32"
      }
    }
  }
}