{
  "address": "0x408D1510c0d59770bc1403A43449B6C590241703",
  "abi": [
    {
      "inputs": [
        {
          "internalType": "address",
          "name": "_priceFeed",
          "type": "address"
        }
      ],
      "stateMutability": "nonpayable",
      "type": "constructor"
    },
    {
      "inputs": [
        {
          "internalType": "address",
          "name": "",
          "type": "address"
        }
      ],
      "name": "addressToAmountFunded",
      "outputs": [
        {
          "internalType": "uint256",
          "name": "",
          "type": "uint256"
        }
      ],
      "stateMutability": "view",
      "type": "function"
    },
    {
      "inputs": [],
      "name": "fund",
      "outputs": [],
      "stateMutability": "payable",
      "type": "function"
    },
    {
      "inputs": [
        {
          "internalType": "uint256",
          "name": "",
          "type": "uint256"
        }
      ],
      "name": "funders",
      "outputs": [
        {
          "internalType": "address",
          "name": "",
          "type": "address"
        }
      ],
      "stateMutability": "view",
      "type": "function"
    },
    {
      "inputs": [],
      "name": "getList",
      "outputs": [
        {
          "internalType": "uint256",
          "name": "",
          "type": "uint256"
        }
      ],
      "stateMutability": "view",
      "type": "function"
    },
    {
      "inputs": [],
      "name": "owner",
      "outputs": [
        {
          "internalType": "address",
          "name": "",
          "type": "address"
        }
      ],
      "stateMutability": "view",
      "type": "function"
    },
    {
      "inputs": [],
      "name": "priceFeed",
      "outputs": [
        {
          "internalType": "contract AggregatorV3Interface",
          "name": "",
          "type": "address"
        }
      ],
      "stateMutability": "view",
      "type": "function"
    },
    {
      "inputs": [],
      "name": "withdraw",
      "outputs": [],
      "stateMutability": "nonpayable",
      "type": "function"
    }
  ],
  "transactionHash": "0x1bb7ea1723c0e3a9ca308ad55d028b56794c7dbda6aea189dad6aafe70b20b14",
  "args": [
    "0x694AA1769357215DE4FAC081bf1f309aDC325306"
  ],
  "numDeployments": 1,
  "solcInputHash": "8f10ff38c7bc81aca24f7f88a62d3563",
  "bytecode": "0x608060405264012a05f20060005534801561001957600080fd5b50604051610f70380380610f70833981810160405281019061003b91906100d8565b80600460006101000a81548173ffffffffffffffffffffffffffffffffffffffff021916908373ffffffffffffffffffffffffffffffffffffffff16021790555033600360006101000a81548173ffffffffffffffffffffffffffffffffffffffff021916908373ffffffffffffffffffffffffffffffffffffffff16021790555050610153565b6000815190506100d28161013c565b92915050565b6000602082840312156100ee576100ed610137565b5b60006100fc848285016100c3565b91505092915050565b600061011082610117565b9050919050565b600073ffffffffffffffffffffffffffffffffffffffff82169050919050565b600080fd5b61014581610105565b811461015057600080fd5b50565b610e0e806101626000396000f3fe6080604052600436106100705760003560e01c80638da5cb5b1161004e5780638da5cb5b146100f4578063942b765a1461011f578063b60d42881461014a578063dc0d3dff1461015457610070565b80633ccfd60b146100755780633e47d6f31461008c578063741bef1a146100c9575b600080fd5b34801561008157600080fd5b5061008a610191565b005b34801561009857600080fd5b506100b360048036038101906100ae9190610811565b6103dd565b6040516100c09190610a4a565b60405180910390f35b3480156100d557600080fd5b506100de6103f5565b6040516100eb91906109cf565b60405180910390f35b34801561010057600080fd5b5061010961041b565b60405161011691906109b4565b60405180910390f35b34801561012b57600080fd5b50610134610441565b6040516101419190610a4a565b60405180910390f35b610152610488565b005b34801561016057600080fd5b5061017b6004803603810190610176919061083e565b6105fa565b60405161018891906109b4565b60405180910390f35b600360009054906101000a900473ffffffffffffffffffffffffffffffffffffffff1673ffffffffffffffffffffffffffffffffffffffff163373ffffffffffffffffffffffffffffffffffffffff1614610221576040517f08c379a000000000000000000000000000000000000000000000000000000000815260040161021890610a2a565b60405180910390fd5b60005b6001805490508110156102cd5760006001828154811061024757610246610c9b565b5b9060005260206000200160009054906101000a900473ffffffffffffffffffffffffffffffffffffffff1690506000600260008373ffffffffffffffffffffffffffffffffffffffff1673ffffffffffffffffffffffffffffffffffffffff168152602001908152602001600020819055505080806102c590610bf4565b915050610224565b50600067ffffffffffffffff8111156102e9576102e8610cca565b5b6040519080825280602002602001820160405280156103175781602001602082028036833780820191505090505b506001908051906020019061032d929190610701565b5060003373ffffffffffffffffffffffffffffffffffffffff16476040516103549061099f565b60006040518083038185875af1925050503d8060008114610391576040519150601f19603f3d011682016040523d82523d6000602084013e610396565b606091505b50509050806103da576040517f08c379a00000000000000000000000000000000000000000000000000000000081526004016103d1906109ea565b60405180910390fd5b50565b60026020528060005260406000206000915090505481565b600460009054906101000a900473ffffffffffffffffffffffffffffffffffffffff1681565b600360009054906101000a900473ffffffffffffffffffffffffffffffffffffffff1681565b6000600260003373ffffffffffffffffffffffffffffffffffffffff1673ffffffffffffffffffffffffffffffffffffffff16815260200190815260200160002054905090565b6000546104c0600460009054906101000a900473ffffffffffffffffffffffffffffffffffffffff163461063990919063ffffffff16565b1015610501576040517f08c379a00000000000000000000000000000000000000000000000000000000081526004016104f890610a0a565b60405180910390fd5b6001339080600181540180825580915050600190039060005260206000200160009091909190916101000a81548173ffffffffffffffffffffffffffffffffffffffff021916908373ffffffffffffffffffffffffffffffffffffffff1602179055506000600260003373ffffffffffffffffffffffffffffffffffffffff1673ffffffffffffffffffffffffffffffffffffffff16815260200190815260200160002054905034816105b49190610a81565b600260003373ffffffffffffffffffffffffffffffffffffffff1673ffffffffffffffffffffffffffffffffffffffff1681526020019081526020016000208190555050565b6001818154811061060a57600080fd5b906000526020600020016000915054906101000a900473ffffffffffffffffffffffffffffffffffffffff1681565b60008061064583610671565b905060006305f5e100828661065a9190610b08565b6106649190610ad7565b9050809250505092915050565b6000808273ffffffffffffffffffffffffffffffffffffffff1663feaf968c6040518163ffffffff1660e01b815260040160a06040518083038186803b1580156106ba57600080fd5b505afa1580156106ce573d6000803e3d6000fd5b505050506040513d601f19601f820116820180604052508101906106f2919061086b565b50505091505080915050919050565b82805482825590600052602060002090810192821561077a579160200282015b828111156107795782518260006101000a81548173ffffffffffffffffffffffffffffffffffffffff021916908373ffffffffffffffffffffffffffffffffffffffff16021790555091602001919060010190610721565b5b509050610787919061078b565b5090565b5b808211156107a457600081600090555060010161078c565b5090565b6000813590506107b781610d7c565b92915050565b6000815190506107cc81610d93565b92915050565b6000813590506107e181610daa565b92915050565b6000815190506107f681610daa565b92915050565b60008151905061080b81610dc1565b92915050565b60006020828403121561082757610826610cf9565b5b6000610835848285016107a8565b91505092915050565b60006020828403121561085457610853610cf9565b5b6000610862848285016107d2565b91505092915050565b600080600080600060a0868803121561088757610886610cf9565b5b6000610895888289016107fc565b95505060206108a6888289016107bd565b94505060406108b7888289016107e7565b93505060606108c8888289016107e7565b92505060806108d9888289016107fc565b9150509295509295909350565b6108ef81610b62565b82525050565b6108fe81610bbe565b82525050565b6000610911600b83610a70565b915061091c82610cfe565b602082019050919050565b6000610934602083610a70565b915061093f82610d27565b602082019050919050565b6000610957600083610a65565b915061096282610d50565b600082019050919050565b600061097a601d83610a70565b915061098582610d53565b602082019050919050565b61099981610b9e565b82525050565b60006109aa8261094a565b9150819050919050565b60006020820190506109c960008301846108e6565b92915050565b60006020820190506109e460008301846108f5565b92915050565b60006020820190508181036000830152610a0381610904565b9050919050565b60006020820190508181036000830152610a2381610927565b9050919050565b60006020820190508181036000830152610a438161096d565b9050919050565b6000602082019050610a5f6000830184610990565b92915050565b600081905092915050565b600082825260208201905092915050565b6000610a8c82610b9e565b9150610a9783610b9e565b9250827fffffffffffffffffffffffffffffffffffffffffffffffffffffffffffffffff03821115610acc57610acb610c3d565b5b828201905092915050565b6000610ae282610b9e565b9150610aed83610b9e565b925082610afd57610afc610c6c565b5b828204905092915050565b6000610b1382610b9e565b9150610b1e83610b9e565b9250817fffffffffffffffffffffffffffffffffffffffffffffffffffffffffffffffff0483118215151615610b5757610b56610c3d565b5b828202905092915050565b6000610b6d82610b7e565b9050919050565b6000819050919050565b600073ffffffffffffffffffffffffffffffffffffffff82169050919050565b6000819050919050565b600069ffffffffffffffffffff82169050919050565b6000610bc982610bd0565b9050919050565b6000610bdb82610be2565b9050919050565b6000610bed82610b7e565b9050919050565b6000610bff82610b9e565b91507fffffffffffffffffffffffffffffffffffffffffffffffffffffffffffffffff821415610c3257610c31610c3d565b5b600182019050919050565b7f4e487b7100000000000000000000000000000000000000000000000000000000600052601160045260246000fd5b7f4e487b7100000000000000000000000000000000000000000000000000000000600052601260045260246000fd5b7f4e487b7100000000000000000000000000000000000000000000000000000000600052603260045260246000fd5b7f4e487b7100000000000000000000000000000000000000000000000000000000600052604160045260246000fd5b600080fd5b7f43616c6c206661696c6564000000000000000000000000000000000000000000600082015250565b7f596f75206861766520746f2073656e64206174206c6561737420353020555344600082015250565b50565b7f66756e63206f6e6c7920617661696c61626c6520666f72206f776e6572000000600082015250565b610d8581610b62565b8114610d9057600080fd5b50565b610d9c81610b74565b8114610da757600080fd5b50565b610db381610b9e565b8114610dbe57600080fd5b50565b610dca81610ba8565b8114610dd557600080fd5b5056fea2646970667358221220201ff8b3c50801be32a6568cd3bc3fc2d5539ae1a36c27b979729cac43e533e764736f6c63430008070033",
  "devdoc": {
    "kind": "dev",
    "methods": {},
    "version": 1
  },
  "userdoc": {
    "kind": "user",
    "methods": {},
    "version": 1
  },
  "storageLayout": {
    "storage": [
      {
        "astId": 57,
        "contract": "contracts/FundMe.sol:FundMe",
        "label": "minimumUSD",
        "offset": 0,
        "slot": "0",
        "type": "t_uint256"
      },
      {
        "astId": 60,
        "contract": "contracts/FundMe.sol:FundMe",
        "label": "funders",
        "offset": 0,
        "slot": "1",
        "type": "t_array(t_address)dyn_storage"
      },
      {
        "astId": 64,
        "contract": "contracts/FundMe.sol:FundMe",
        "label": "addressToAmountFunded",
        "offset": 0,
        "slot": "2",
        "type": "t_mapping(t_address,t_uint256)"
      },
      {
        "astId": 66,
        "contract": "contracts/FundMe.sol:FundMe",
        "label": "owner",
        "offset": 0,
        "slot": "3",
        "type": "t_address"
      },
      {
        "astId": 69,
        "contract": "contracts/FundMe.sol:FundMe",
        "label": "priceFeed",
        "offset": 0,
        "slot": "4",
        "type": "t_contract(AggregatorV3Interface)45"
      }
    ],
    "types": {
      "t_address": {
        "encoding": "inplace",
        "label": "address",
        "numberOfBytes": "20"
      },
      "t_array(t_address)dyn_storage": {
        "base": "t_address",
        "encoding": "dynamic_array",
        "label": "address[]",
        "numberOfBytes": "32"
      },
      "t_contract(AggregatorV3Interface)45": {
        "encoding": "inplace",
        "label": "contract AggregatorV3Interface",
        "numberOfBytes": "20"
      },
      "t_mapping(t_address,t_uint256)": {
        "encoding": "mapping",
        "key": "t_address",
        "label": "mapping(address => uint256)",
        "numberOfBytes": "32",
        "value": "t_uint256"
      },
      "t_uint256": {
        "encoding": "inplace",
        "label": "uint256",
        "numberOfBytes": "32"
      }
    }
  }
}